{
  "abi": [
    {
      "type": "function",
      "name": "allowance",
      "inputs": [
        {
          "name": "_owner",
          "type": "address",
          "internalType": "address"
        },
        {
          "name": "_spender",
          "type": "address",
          "internalType": "address"
        }
      ],
      "outputs": [
        {
          "name": "",
          "type": "uint256",
          "internalType": "uint256"
        }
      ],
      "stateMutability": "view"
    },
    {
      "type": "function",
      "name": "approve",
      "inputs": [
        {
          "name": "_spender",
          "type": "address",
          "internalType": "address"
        },
        {
          "name": "_amount",
          "type": "uint256",
          "internalType": "uint256"
        }
      ],
      "outputs": [
        {
          "name": "",
          "type": "bool",
          "internalType": "bool"
        }
      ],
      "stateMutability": "nonpayable"
    },
    {
      "type": "function",
      "name": "balanceOf",
      "inputs": [
        {
          "name": "_userAddress",
          "type": "address",
          "internalType": "address"
        }
      ],
      "outputs": [
        {
          "name": "",
          "type": "uint256",
          "internalType": "uint256"
        }
      ],
      "stateMutability": "view"
    },
    {
      "type": "function",
      "name": "batchBurn",
      "inputs": [
        {
          "name": "_userAddresses",
          "type": "address[]",
          "internalType": "address[]"
        },
        {
          "name": "_amounts",
          "type": "uint256[]",
          "internalType": "uint256[]"
        }
      ],
      "outputs": [],
      "stateMutability": "nonpayable"
    },
    {
      "type": "function",
      "name": "batchMint",
      "inputs": [
        {
          "name": "_toList",
          "type": "address[]",
          "internalType": "address[]"
        },
        {
          "name": "_amounts",
          "type": "uint256[]",
          "internalType": "uint256[]"
        }
      ],
      "outputs": [],
      "stateMutability": "nonpayable"
    },
    {
      "type": "function",
      "name": "batchTransfer",
      "inputs": [
        {
          "name": "_toList",
          "type": "address[]",
          "internalType": "address[]"
        },
        {
          "name": "_amounts",
          "type": "uint256[]",
          "internalType": "uint256[]"
        }
      ],
      "outputs": [],
      "stateMutability": "nonpayable"
    },
    {
      "type": "function",
      "name": "burn",
      "inputs": [
        {
          "name": "_userAddress",
          "type": "address",
          "internalType": "address"
        },
        {
          "name": "_amount",
          "type": "uint256",
          "internalType": "uint256"
        }
      ],
      "outputs": [],
      "stateMutability": "nonpayable"
    },
    {
      "type": "function",
      "name": "cancel",
      "inputs": [
        {
          "name": "orderId",
          "type": "bytes32",
          "internalType": "bytes32"
        }
      ],
      "outputs": [],
      "stateMutability": "nonpayable"
    },
    {
      "type": "function",
      "name": "confirm",
      "inputs": [
        {
          "name": "orderId",
          "type": "bytes32",
          "internalType": "bytes32"
        }
      ],
      "outputs": [],
      "stateMutability": "nonpayable"
    },
    {
      "type": "function",
      "name": "decimals",
      "inputs": [],
      "outputs": [
        {
          "name": "",
          "type": "uint8",
          "internalType": "uint8"
        }
      ],
      "stateMutability": "view"
    },
    {
      "type": "function",
      "name": "decode7683FillInstruction",
      "inputs": [
        {
          "name": "fillInstruction",
          "type": "bytes",
          "internalType": "bytes"
        }
      ],
      "outputs": [
        {
          "name": "",
          "type": "tuple",
          "internalType": "struct FillInstruction",
          "components": [
            {
              "name": "destinationChainId",
              "type": "uint64",
              "internalType": "uint64"
            },
            {
              "name": "destinationSettler",
              "type": "bytes32",
              "internalType": "bytes32"
            },
            {
              "name": "originData",
              "type": "bytes",
              "internalType": "bytes"
            }
          ]
        }
      ],
      "stateMutability": "pure"
    },
    {
      "type": "function",
      "name": "decode7683OrderData",
      "inputs": [
        {
          "name": "orderData",
          "type": "bytes",
          "internalType": "bytes"
        }
      ],
      "outputs": [
        {
          "name": "",
          "type": "tuple",
          "internalType": "struct TokenStorage.OrderData",
          "components": [
            {
              "name": "to",
              "type": "address",
              "internalType": "address"
            },
            {
              "name": "amount",
              "type": "uint256",
              "internalType": "uint256"
            },
            {
              "name": "destinationChainId",
              "type": "uint64",
              "internalType": "uint64"
            },
            {
              "name": "feeToken",
              "type": "address",
              "internalType": "address"
            },
            {
              "name": "feeValue",
              "type": "uint256",
              "internalType": "uint256"
            }
          ]
        }
      ],
      "stateMutability": "pure"
    },
    {
      "type": "function",
      "name": "decreaseAllowance",
      "inputs": [
        {
          "name": "_spender",
          "type": "address",
          "internalType": "address"
        },
        {
          "name": "_subtractedValue",
          "type": "uint256",
          "internalType": "uint256"
        }
      ],
      "outputs": [
        {
          "name": "",
          "type": "bool",
          "internalType": "bool"
        }
      ],
      "stateMutability": "nonpayable"
    },
    {
      "type": "function",
      "name": "fill",
      "inputs": [
        {
          "name": "orderId",
          "type": "bytes32",
          "internalType": "bytes32"
        },
        {
          "name": "originData",
          "type": "bytes",
          "internalType": "bytes"
        },
        {
          "name": "fillerData",
          "type": "bytes",
          "internalType": "bytes"
        }
      ],
      "outputs": [],
      "stateMutability": "nonpayable"
    },
    {
      "type": "function",
      "name": "increaseAllowance",
      "inputs": [
        {
          "name": "_spender",
          "type": "address",
          "internalType": "address"
        },
        {
          "name": "_addedValue",
          "type": "uint256",
          "internalType": "uint256"
        }
      ],
      "outputs": [
        {
          "name": "",
          "type": "bool",
          "internalType": "bool"
        }
      ],
      "stateMutability": "nonpayable"
    },
    {
      "type": "function",
      "name": "init",
      "inputs": [
        {
          "name": "_initialOwner",
          "type": "address",
          "internalType": "address"
        },
        {
          "name": "_name",
          "type": "string",
          "internalType": "string"
        },
        {
          "name": "_symbol",
          "type": "string",
          "internalType": "string"
        },
        {
          "name": "_decimals",
          "type": "uint8",
          "internalType": "uint8"
        }
      ],
      "outputs": [],
      "stateMutability": "nonpayable"
    },
    {
      "type": "function",
      "name": "mint",
      "inputs": [
        {
          "name": "_to",
          "type": "address",
          "internalType": "address"
        },
        {
          "name": "_amount",
          "type": "uint256",
          "internalType": "uint256"
        }
      ],
      "outputs": [],
      "stateMutability": "nonpayable"
    },
    {
      "type": "function",
      "name": "name",
      "inputs": [],
      "outputs": [
        {
          "name": "",
          "type": "string",
          "internalType": "string"
        }
      ],
      "stateMutability": "view"
    },
    {
      "type": "function",
      "name": "open",
      "inputs": [
        {
          "name": "order",
          "type": "tuple",
          "internalType": "struct OnchainCrossChainOrder",
          "components": [
            {
              "name": "fillDeadline",
              "type": "uint32",
              "internalType": "uint32"
            },
            {
              "name": "orderDataType",
              "type": "bytes32",
              "internalType": "bytes32"
            },
            {
              "name": "orderData",
              "type": "bytes",
              "internalType": "bytes"
            }
          ]
        }
      ],
      "outputs": [],
      "stateMutability": "nonpayable"
    },
    {
      "type": "function",
      "name": "owner",
      "inputs": [],
      "outputs": [
        {
          "name": "",
          "type": "address",
          "internalType": "address"
        }
      ],
      "stateMutability": "view"
    },
    {
      "type": "function",
      "name": "pause",
      "inputs": [],
      "outputs": [],
      "stateMutability": "nonpayable"
    },
    {
      "type": "function",
      "name": "paused",
      "inputs": [],
      "outputs": [
        {
          "name": "",
          "type": "bool",
          "internalType": "bool"
        }
      ],
      "stateMutability": "view"
    },
    {
      "type": "function",
      "name": "pendingOrders",
      "inputs": [
        {
          "name": "",
          "type": "bytes32",
          "internalType": "bytes32"
        }
      ],
      "outputs": [
        {
          "name": "from",
          "type": "address",
          "internalType": "address"
        },
        {
          "name": "orderData",
          "type": "tuple",
          "internalType": "struct TokenStorage.OrderData",
          "components": [
            {
              "name": "to",
              "type": "address",
              "internalType": "address"
            },
            {
              "name": "amount",
              "type": "uint256",
              "internalType": "uint256"
            },
            {
              "name": "destinationChainId",
              "type": "uint64",
              "internalType": "uint64"
            },
            {
              "name": "feeToken",
              "type": "address",
              "internalType": "address"
            },
            {
              "name": "feeValue",
              "type": "uint256",
              "internalType": "uint256"
            }
          ]
        }
      ],
      "stateMutability": "view"
    },
    {
      "type": "function",
      "name": "renounceOwnership",
      "inputs": [],
      "outputs": [],
      "stateMutability": "nonpayable"
    },
    {
      "type": "function",
      "name": "resolve",
      "inputs": [
        {
          "name": "order",
          "type": "tuple",
          "internalType": "struct OnchainCrossChainOrder",
          "components": [
            {
              "name": "fillDeadline",
              "type": "uint32",
              "internalType": "uint32"
            },
            {
              "name": "orderDataType",
              "type": "bytes32",
              "internalType": "bytes32"
            },
            {
              "name": "orderData",
              "type": "bytes",
              "internalType": "bytes"
            }
          ]
        }
      ],
      "outputs": [
        {
          "name": "",
          "type": "tuple",
          "internalType": "struct ResolvedCrossChainOrder",
          "components": [
            {
              "name": "user",
              "type": "address",
              "internalType": "address"
            },
            {
              "name": "originChainId",
              "type": "uint256",
              "internalType": "uint256"
            },
            {
              "name": "openDeadline",
              "type": "uint32",
              "internalType": "uint32"
            },
            {
              "name": "fillDeadline",
              "type": "uint32",
              "internalType": "uint32"
            },
            {
              "name": "orderId",
              "type": "bytes32",
              "internalType": "bytes32"
            },
            {
              "name": "maxSpent",
              "type": "tuple[]",
              "internalType": "struct Output[]",
              "components": [
                {
                  "name": "token",
                  "type": "bytes32",
                  "internalType": "bytes32"
                },
                {
                  "name": "amount",
                  "type": "uint256",
                  "internalType": "uint256"
                },
                {
                  "name": "recipient",
                  "type": "bytes32",
                  "internalType": "bytes32"
                },
                {
                  "name": "chainId",
                  "type": "uint256",
                  "internalType": "uint256"
                }
              ]
            },
            {
              "name": "minReceived",
              "type": "tuple[]",
              "internalType": "struct Output[]",
              "components": [
                {
                  "name": "token",
                  "type": "bytes32",
                  "internalType": "bytes32"
                },
                {
                  "name": "amount",
                  "type": "uint256",
                  "internalType": "uint256"
                },
                {
                  "name": "recipient",
                  "type": "bytes32",
                  "internalType": "bytes32"
                },
                {
                  "name": "chainId",
                  "type": "uint256",
                  "internalType": "uint256"
                }
              ]
            },
            {
              "name": "fillInstructions",
              "type": "tuple[]",
              "internalType": "struct FillInstruction[]",
              "components": [
                {
                  "name": "destinationChainId",
                  "type": "uint64",
                  "internalType": "uint64"
                },
                {
                  "name": "destinationSettler",
                  "type": "bytes32",
                  "internalType": "bytes32"
                },
                {
                  "name": "originData",
                  "type": "bytes",
                  "internalType": "bytes"
                }
              ]
            }
          ]
        }
      ],
      "stateMutability": "view"
    },
    {
      "type": "function",
      "name": "setName",
      "inputs": [
        {
          "name": "_name",
          "type": "string",
          "internalType": "string"
        }
      ],
      "outputs": [],
      "stateMutability": "nonpayable"
    },
    {
      "type": "function",
      "name": "setSymbol",
      "inputs": [
        {
          "name": "_symbol",
          "type": "string",
          "internalType": "string"
        }
      ],
      "outputs": [],
      "stateMutability": "nonpayable"
    },
    {
      "type": "function",
      "name": "symbol",
      "inputs": [],
      "outputs": [
        {
          "name": "",
          "type": "string",
          "internalType": "string"
        }
      ],
      "stateMutability": "view"
    },
    {
      "type": "function",
      "name": "totalSupply",
      "inputs": [],
      "outputs": [
        {
          "name": "",
          "type": "uint256",
          "internalType": "uint256"
        }
      ],
      "stateMutability": "view"
    },
    {
      "type": "function",
      "name": "transfer",
      "inputs": [
        {
          "name": "_to",
          "type": "address",
          "internalType": "address"
        },
        {
          "name": "_amount",
          "type": "uint256",
          "internalType": "uint256"
        }
      ],
      "outputs": [
        {
          "name": "",
          "type": "bool",
          "internalType": "bool"
        }
      ],
      "stateMutability": "nonpayable"
    },
    {
      "type": "function",
      "name": "transferFrom",
      "inputs": [
        {
          "name": "_from",
          "type": "address",
          "internalType": "address"
        },
        {
          "name": "_to",
          "type": "address",
          "internalType": "address"
        },
        {
          "name": "_amount",
          "type": "uint256",
          "internalType": "uint256"
        }
      ],
      "outputs": [
        {
          "name": "",
          "type": "bool",
          "internalType": "bool"
        }
      ],
      "stateMutability": "nonpayable"
    },
    {
      "type": "function",
      "name": "transferOwnership",
      "inputs": [
        {
          "name": "newOwner",
          "type": "address",
          "internalType": "address"
        }
      ],
      "outputs": [],
      "stateMutability": "nonpayable"
    },
    {
      "type": "function",
      "name": "unpause",
      "inputs": [],
      "outputs": [],
      "stateMutability": "nonpayable"
    },
    {
      "type": "function",
      "name": "version",
      "inputs": [],
      "outputs": [
        {
          "name": "",
          "type": "string",
          "internalType": "string"
        }
      ],
      "stateMutability": "pure"
    },
    {
      "type": "event",
      "name": "Approval",
      "inputs": [
        {
          "name": "owner",
          "type": "address",
          "indexed": true,
          "internalType": "address"
        },
        {
          "name": "spender",
          "type": "address",
          "indexed": true,
          "internalType": "address"
        },
        {
          "name": "value",
          "type": "uint256",
          "indexed": false,
          "internalType": "uint256"
        }
      ],
      "anonymous": false
    },
    {
      "type": "event",
      "name": "Cancel",
      "inputs": [
        {
          "name": "orderId",
          "type": "bytes32",
          "indexed": true,
          "internalType": "bytes32"
        }
      ],
      "anonymous": false
    },
    {
      "type": "event",
      "name": "Confirm",
      "inputs": [
        {
          "name": "orderId",
          "type": "bytes32",
          "indexed": true,
          "internalType": "bytes32"
        }
      ],
      "anonymous": false
    },
    {
      "type": "event",
      "name": "Fill",
      "inputs": [
        {
          "name": "orderId",
          "type": "bytes32",
          "indexed": true,
          "internalType": "bytes32"
        }
      ],
      "anonymous": false
    },
    {
      "type": "event",
      "name": "Initialized",
      "inputs": [
        {
          "name": "version",
          "type": "uint64",
          "indexed": false,
          "internalType": "uint64"
        }
      ],
      "anonymous": false
    },
    {
      "type": "event",
      "name": "Open",
      "inputs": [
        {
          "name": "orderId",
          "type": "bytes32",
          "indexed": true,
          "internalType": "bytes32"
        },
        {
          "name": "resolvedOrder",
          "type": "tuple",
          "indexed": false,
          "internalType": "struct ResolvedCrossChainOrder",
          "components": [
            {
              "name": "user",
              "type": "address",
              "internalType": "address"
            },
            {
              "name": "originChainId",
              "type": "uint256",
              "internalType": "uint256"
            },
            {
              "name": "openDeadline",
              "type": "uint32",
              "internalType": "uint32"
            },
            {
              "name": "fillDeadline",
              "type": "uint32",
              "internalType": "uint32"
            },
            {
              "name": "orderId",
              "type": "bytes32",
              "internalType": "bytes32"
            },
            {
              "name": "maxSpent",
              "type": "tuple[]",
              "internalType": "struct Output[]",
              "components": [
                {
                  "name": "token",
                  "type": "bytes32",
                  "internalType": "bytes32"
                },
                {
                  "name": "amount",
                  "type": "uint256",
                  "internalType": "uint256"
                },
                {
                  "name": "recipient",
                  "type": "bytes32",
                  "internalType": "bytes32"
                },
                {
                  "name": "chainId",
                  "type": "uint256",
                  "internalType": "uint256"
                }
              ]
            },
            {
              "name": "minReceived",
              "type": "tuple[]",
              "internalType": "struct Output[]",
              "components": [
                {
                  "name": "token",
                  "type": "bytes32",
                  "internalType": "bytes32"
                },
                {
                  "name": "amount",
                  "type": "uint256",
                  "internalType": "uint256"
                },
                {
                  "name": "recipient",
                  "type": "bytes32",
                  "internalType": "bytes32"
                },
                {
                  "name": "chainId",
                  "type": "uint256",
                  "internalType": "uint256"
                }
              ]
            },
            {
              "name": "fillInstructions",
              "type": "tuple[]",
              "internalType": "struct FillInstruction[]",
              "components": [
                {
                  "name": "destinationChainId",
                  "type": "uint64",
                  "internalType": "uint64"
                },
                {
                  "name": "destinationSettler",
                  "type": "bytes32",
                  "internalType": "bytes32"
                },
                {
                  "name": "originData",
                  "type": "bytes",
                  "internalType": "bytes"
                }
              ]
            }
          ]
        }
      ],
      "anonymous": false
    },
    {
      "type": "event",
      "name": "OwnershipTransferred",
      "inputs": [
        {
          "name": "previousOwner",
          "type": "address",
          "indexed": true,
          "internalType": "address"
        },
        {
          "name": "newOwner",
          "type": "address",
          "indexed": true,
          "internalType": "address"
        }
      ],
      "anonymous": false
    },
    {
      "type": "event",
      "name": "Paused",
      "inputs": [
        {
          "name": "_userAddress",
          "type": "address",
          "indexed": false,
          "internalType": "address"
        }
      ],
      "anonymous": false
    },
    {
      "type": "event",
      "name": "Transfer",
      "inputs": [
        {
          "name": "from",
          "type": "address",
          "indexed": true,
          "internalType": "address"
        },
        {
          "name": "to",
          "type": "address",
          "indexed": true,
          "internalType": "address"
        },
        {
          "name": "value",
          "type": "uint256",
          "indexed": false,
          "internalType": "uint256"
        }
      ],
      "anonymous": false
    },
    {
      "type": "event",
      "name": "Unpaused",
      "inputs": [
        {
          "name": "_userAddress",
          "type": "address",
          "indexed": false,
          "internalType": "address"
        }
      ],
      "anonymous": false
    },
    {
      "type": "event",
      "name": "UpdatedTokenInformation",
      "inputs": [
        {
          "name": "_newName",
          "type": "string",
          "indexed": true,
          "internalType": "string"
        },
        {
          "name": "_newSymbol",
          "type": "string",
          "indexed": true,
          "internalType": "string"
        },
        {
          "name": "_newDecimals",
          "type": "uint8",
          "indexed": false,
          "internalType": "uint8"
        },
        {
          "name": "_newVersion",
          "type": "string",
          "indexed": false,
          "internalType": "string"
        }
      ],
      "anonymous": false
    },
    {
      "type": "error",
      "name": "InvalidInitialization",
      "inputs": []
    },
    {
      "type": "error",
      "name": "NotInitializing",
      "inputs": []
    },
    {
      "type": "error",
      "name": "OrderNotPending",
      "inputs": [
        {
          "name": "orderId",
          "type": "bytes32",
          "internalType": "bytes32"
        }
      ]
    },
    {
      "type": "error",
      "name": "OwnableInvalidOwner",
      "inputs": [
        {
          "name": "owner",
          "type": "address",
          "internalType": "address"
        }
      ]
    },
    {
      "type": "error",
      "name": "OwnableUnauthorizedAccount",
      "inputs": [
        {
          "name": "account",
          "type": "address",
          "internalType": "address"
        }
      ]
    },
    {
      "type": "error",
      "name": "ReentrancyGuardReentrantCall",
      "inputs": []
    },
    {
      "type": "error",
      "name": "UnauthorizedFiller",
      "inputs": [
        {
          "name": "sender",
          "type": "address",
          "internalType": "address"
        },
        {
          "name": "filler",
          "type": "address",
          "internalType": "address"
        }
      ]
    },
    {
      "type": "error",
      "name": "WrongOrderType",
      "inputs": []
    }
  ],
  "bytecode": {
    "object": "0x60a06040526005805461ff00191690557f8ebd7f9ebdeca74f331f7721f043d22079b0c7b60a8380dc989ed502592a433a608052600780546001600160a01b031916737fa9385be102ac3eac297483dd6233d62b3e14961790553480156063575f5ffd5b506001603955608051612f346100815f395f610bae0152612f345ff3fe608060405234801561000f575f5ffd5b50600436106101fd575f3560e01c8063715018a6116101145780639dc29fac116100a9578063c47f002711610079578063c47f0027146104e5578063c4d252f5146104f8578063dd62ed3e1461050b578063e917a96214610543578063f2fde38b14610556575f5ffd5b80639dc29fac14610499578063a457c2d7146104ac578063a9059cbb146104bf578063b84c8246146104d2575f5ffd5b80638456cb59116100e45780638456cb591461045657806388d695b21461045e5780638da5cb5b1461047157806395d89b4114610491575f5ffd5b8063715018a61461039e578063797af627146103a65780637b55766f146103b957806382e2c43f14610443575f5ffd5b80633f4ba83a1161019557806354fd4d501161016557806354fd4d50146103125780635788015a146103335780635c975abb14610353578063685731071461036357806370a0823114610376575f5ffd5b80633f4ba83a146102c457806340c10f19146102cc57806341b477dd146102df5780634a6cc677146102ff575f5ffd5b806325db3796116101d057806325db379614610267578063313ce56714610287578063395093511461029c5780633bf73798146102af575f5ffd5b806306fdde0314610201578063095ea7b31461021f57806318160ddd1461024257806323b872dd14610254575b5f5ffd5b610209610569565b6040516102169190611fec565b60405180910390f35b61023261022d366004612012565b6105f9565b6040519015158152602001610216565b6002545b604051908152602001610216565b61023261026236600461203c565b61060f565b61027a61027536600461218c565b6106f0565b6040516102169190612209565b60055460405160ff9091168152602001610216565b6102326102aa366004612012565b61071f565b6102c26102bd366004612239565b610755565b005b6102c2610aa7565b6102c26102da366004612012565b610b3e565b6102f26102ed3660046122c5565b610b54565b60405161021691906123b5565b6102c261030d3660046124b5565b610ef2565b6040805180820190915260058152640312e302e360dc1b6020820152610209565b61034661034136600461218c565b610f53565b6040516102169190612563565b600554610100900460ff16610232565b6102c26103713660046124b5565b610f8f565b610246610384366004612571565b6001600160a01b03165f9081526020819052604090205490565b6102c2610fe9565b6102c26103b436600461258c565b610ffc565b6104356103c736600461258c565b600660209081525f9182526040918290208054835160a08101855260018301546001600160a01b03908116825260028401549482019490945260038301546001600160401b03811695820195909552600160401b909404831660608501526004909101546080840152169082565b6040516102169291906125a3565b6102c26104513660046125fd565b611114565b6102c261121a565b6102c261046c3660046124b5565b611289565b6104796112e4565b6040516001600160a01b039091168152602001610216565b610209611312565b6102c26104a7366004612012565b611321565b6102326104ba366004612012565b6113a0565b6102326104cd366004612012565b6113d6565b6102c26104e0366004612674565b611460565b6102c26104f3366004612674565b611578565b6102c261050636600461258c565b611603565b6102466105193660046126b2565b6001600160a01b039182165f90815260016020908152604080832093909416825291909152205490565b6102c26105513660046122c5565b61179f565b6102c2610564366004612571565b6119aa565b606060038054610578906126e9565b80601f01602080910402602001604051908101604052809291908181526020018280546105a4906126e9565b80156105ef5780601f106105c6576101008083540402835291602001916105ef565b820191905f5260205f20905b8154815290600101906020018083116105d257829003601f168201915b5050505050905090565b5f6106053384846119e4565b5060015b92915050565b6005545f90610100900460ff16156106425760405162461bcd60e51b815260040161063990612721565b60405180910390fd5b6001600160a01b0384165f908152602081905260409020548211156106a05760405162461bcd60e51b8152602060048201526014602482015273496e73756666696369656e742042616c616e636560601b6044820152606401610639565b6001600160a01b0384165f908152600160209081526040808320338085529252909120546106da9186916106d590869061275f565b6119e4565b6106e5848484611b08565b5060015b9392505050565b60408051606080820183525f808352602083015291810191909152818060200190518101906106099190612827565b335f8181526001602090815260408083206001600160a01b038716845290915281205490916106059185906106d5908690612858565b7ff0c57e16840df040f15088dc2f81fe391c3923bec73e23a9662efc9c229c6a008054600160401b810460ff1615906001600160401b03165f811580156107995750825b90505f826001600160401b031660011480156107b45750303b155b9050811580156107c2575080155b156107e05760405163f92ee8a960e01b815260040160405180910390fd5b845467ffffffffffffffff19166001178555831561080a57845460ff60401b1916600160401b1785555b5f6108136112e4565b6001600160a01b03161461085f5760405162461bcd60e51b8152602060048201526013602482015272185b1c9958591e481a5b9a5d1a585b1a5e9959606a1b6044820152606401610639565b6040516020016108799060208082525f9082015260400190565b60405160208183030381529060405280519060200120886040516020016108a09190611fec565b604051602081830303815290604052805190602001201415801561091957506040516020016108d99060208082525f9082015260400190565b60405160208183030381529060405280519060200120876040516020016109009190611fec565b6040516020818303038152906040528051906020012014155b6109355760405162461bcd60e51b81526004016106399061286b565b60128660ff1611156109895760405162461bcd60e51b815260206004820152601960248201527f646563696d616c73206265747765656e203020616e64203138000000000000006044820152606401610639565b61099289611c70565b6109a533683635c9adc5dea00000610b3e565b60036109b189826128e6565b5060046109be88826128e6565b506005805460ff191660ff88161790556040516109dd906004906129a0565b604051809103902060036040516109f491906129a0565b60408051918290038220600580548484018452908452640312e302e360dc1b6020850152915190927ff3b81f721430b8815a2a07357fdaf57531529be79ed5703c2f3c908287236d1d92610a4e9260ff9091169190612a11565b60405180910390a38315610a9c57845460ff60401b19168555604051600181527fc7f505b2f371ae2175ee4913f4499e1f2633a7b5936321eed1cdaeb6115181d29060200160405180910390a15b505050505050505050565b610aaf611c81565b600554610100900460ff16610afd5760405162461bcd60e51b815260206004820152601460248201527314185d5cd8589b194e881b9bdd081c185d5cd95960621b6044820152606401610639565b6005805461ff00191690556040513381527f5db9ee0a495bf2e6ff9c91a7834c1ba4fdd244a5e8aa4e537bd38aeae4b073aa906020015b60405180910390a1565b610b46611c81565b610b508282611cb3565b5050565b610bac6040518061010001604052805f6001600160a01b031681526020015f81526020015f63ffffffff1681526020015f63ffffffff1681526020015f81526020016060815260200160608152602001606081525090565b7f0000000000000000000000000000000000000000000000000000000000000000826020013514610bf05760405163bef31f6b60e01b815260040160405180910390fd5b5f610c3a610c016040850185612a2c565b8080601f0160208091040260200160405190810160405280939291908181526020018383808284375f92019190915250610f5392505050565b6040805160018082528183019092529192505f9190816020015b610c7b60405180608001604052805f81526020015f81526020015f81526020015f81525090565b815260200190600190039081610c545750506040805160018082528183019092529192505f9190602082015b610cce60405180608001604052805f81526020015f81526020015f81526020015f81525090565b815260200190600190039081610ca75750506040805160018082528183019092529192505f9190602082015b60408051606080820183525f808352602083015291810191909152815260200190600190039081610cfa5790505090506040518060800160405280610d4986606001516001600160a01b031690565b815260200185608001518152602001610d6b865f01516001600160a01b031690565b815260200185604001516001600160401b0316815250835f81518110610d9357610d93612a6e565b60200260200101819052506040518060800160405280610db9306001600160a01b031690565b8152602086810151908201526040015f815260200146815250825f81518110610de457610de4612a6e565b6020026020010181905250604051806060016040528085604001516001600160401b03168152602001610e1d306001600160a01b031690565b8152602001610e2f6040890189612a2c565b8080601f0160208091040260200160405190810160405280939291908181526020018383808284375f9201829052509390945250508351849250610e7557610e75612a6e565b6020026020010181905250604051806101000160405280336001600160a01b0316815260200146815260200163ffffffff80168152602001875f016020810190610ebf9190612a93565b63ffffffff168152602001610ed2611d8a565b815260200184815260200183815260200182815250945050505050919050565b5f5b83811015610f4c57610f44858583818110610f1157610f11612a6e565b9050602002016020810190610f269190612571565b848484818110610f3857610f38612a6e565b90506020020135611321565b600101610ef4565b5050505050565b6040805160a0810182525f8082526020808301829052928201819052606082018190526080820152825190916106099184018101908401612ab9565b5f5b83811015610f4c57610fe1858583818110610fae57610fae612a6e565b9050602002016020810190610fc39190612571565b848484818110610fd557610fd5612a6e565b90506020020135610b3e565b600101610f91565b610ff1611c81565b610ffa5f611de5565b565b611004611e55565b6007546001600160a01b0316331461104457600754604051639946bd5360e01b81523360048201526001600160a01b039091166024820152604401610639565b5f818152600660205260409020546001600160a01b03166110995760405162461bcd60e51b815260206004820152600f60248201526e13dc99195c881b9bdd08199bdd5b99608a1b6044820152606401610639565b5f8181526006602052604080822080546001600160a01b031990811682556001820180549091169055600281018390556003810180546001600160e01b03191690556004018290555182917f94d94affe11eeecd469f8d64826f21e58723e70a2d6f0a69d3475ec3f6ff6f6891a26111116001603955565b50565b61111c611e55565b6007546001600160a01b0316331461115c57600754604051639946bd5360e01b81523360048201526001600160a01b039091166024820152604401610639565b5f858152600660205260409020546001600160a01b03166111935760405163b0ec289d60e01b815260048101869052602401610639565b5f6111d285858080601f0160208091040260200160405190810160405280939291908181526020018383808284375f92019190915250610f5392505050565b90506111e5815f01518260200151611cb3565b60405186907fddbfc9ff3f03002e3d81f56bc885f7e8a3b00e16b50939c32405d366c0bd5aa2905f90a250610f4c6001603955565b611222611c81565b600554610100900460ff161561124a5760405162461bcd60e51b815260040161063990612721565b6005805461ff0019166101001790556040513381527f62e78cea01bee320cd4e420270b5ea74000d11b0c9f74754ebdbfc544b05a25890602001610b34565b5f5b83811015610f4c576112db8585838181106112a8576112a8612a6e565b90506020020160208101906112bd9190612571565b8484848181106112cf576112cf612a6e565b905060200201356113d6565b5060010161128b565b7f9016d09d72d40fdae2fd8ceac6b6234c7706214fd39c1cd1e609a0528c199300546001600160a01b031690565b606060048054610578906126e9565b611329611c81565b80611348836001600160a01b03165f9081526020819052604090205490565b10156113965760405162461bcd60e51b815260206004820152601d60248201527f63616e6e6f74206275726e206d6f7265207468616e2062616c616e63650000006044820152606401610639565b610b508282611e7f565b335f8181526001602090815260408083206001600160a01b038716845290915281205490916106059185906106d590869061275f565b6005545f90610100900460ff16156114005760405162461bcd60e51b815260040161063990612721565b335f908152602081905260409020548211156114555760405162461bcd60e51b8152602060048201526014602482015273496e73756666696369656e742042616c616e636560601b6044820152606401610639565b610605338484611b08565b611468611c81565b6040516020016114829060208082525f9082015260400190565b6040516020818303038152906040528051906020012082826040516020016114ab929190612b66565b60405160208183030381529060405280519060200120036114de5760405162461bcd60e51b81526004016106399061286b565b60046114eb828483612b79565b5060046040516114fb91906129a0565b6040518091039020600360405161151291906129a0565b60408051918290038220600580548484018452908452640312e302e360dc1b6020850152915190927ff3b81f721430b8815a2a07357fdaf57531529be79ed5703c2f3c908287236d1d9261156c9260ff9091169190612a11565b60405180910390a35050565b611580611c81565b60405160200161159a9060208082525f9082015260400190565b6040516020818303038152906040528051906020012082826040516020016115c3929190612b66565b60405160208183030381529060405280519060200120036115f65760405162461bcd60e51b81526004016106399061286b565b60036114eb828483612b79565b61160b611e55565b6007546001600160a01b0316331461164b57600754604051639946bd5360e01b81523360048201526001600160a01b039091166024820152604401610639565b5f81815260066020526040812060020154900361169c5760405162461bcd60e51b815260206004820152600f60248201526e13dc99195c881b9bdd08199bdd5b99608a1b6044820152606401610639565b5f818152600660209081526040918290208251808401845281546001600160a01b039081168252845160a081018652600184015482168152600284015481860190815260038501546001600160401b03811697830197909752600160401b909604909116606082015260049092015460808301529182015280519151909161172691309190611b08565b5f8281526006602052604080822080546001600160a01b031990811682556001820180549091169055600281018390556003810180546001600160e01b03191690556004018290555183917fe8d9861dbc9c663ed3accd261bbe2fe01e0d3d9e5f51fa38523b265c7757a93a91a2506111116001603955565b6117a7611e55565b5f6117b8610c016040840184612a2c565b6040516341b477dd60e01b81529091505f9030906341b477dd906117e0908690600401612c32565b5f60405180830381865afa1580156117fa573d5f5f3e3d5ffd5b505050506040513d5f823e601f3d908101601f191682016040526118219190810190612df8565b60808101515f908152600660205260409020549091506001600160a01b0316156118855760405162461bcd60e51b81526020600482015260156024820152744f7264657220616c72656164792070656e64696e6760581b6044820152606401610639565b6040805180820182523380825260208083018681526080808701515f90815260068452869020855181546001600160a01b039182166001600160a01b0319918216178355935180516001840180549184169190961617909455838501516002830155968301516003820180546060860151909916600160401b026001600160e01b03199099166001600160401b039092169190911797909717909655015160049094019390935591840151909161193d913090611b08565b8160e001515f8151811061195357611953612a6e565b602002602001015160400151805190602001207fa576d0af275d0c6207ef43ceee8c498a5d7a26b8157a32d3fdf361e64371628c8360405161199591906123b5565b60405180910390a25050506111116001603955565b6119b2611c81565b6001600160a01b0381166119db57604051631e4fbdf760e01b81525f6004820152602401610639565b61111181611de5565b6001600160a01b038316611a465760405162461bcd60e51b8152602060048201526024808201527f45524332303a20617070726f76652066726f6d20746865207a65726f206164646044820152637265737360e01b6064820152608401610639565b6001600160a01b038216611aa75760405162461bcd60e51b815260206004820152602260248201527f45524332303a20617070726f766520746f20746865207a65726f206164647265604482015261737360f01b6064820152608401610639565b6001600160a01b038381165f8181526001602090815260408083209487168084529482529182902085905590518481527f8c5be1e5ebec7d5bd14f71427d1e84f3dd0314c0f7b2291e5b200ac8c7c3b92591015b60405180910390a3505050565b6001600160a01b038316611b6c5760405162461bcd60e51b815260206004820152602560248201527f45524332303a207472616e736665722066726f6d20746865207a65726f206164604482015264647265737360d81b6064820152608401610639565b6001600160a01b038216611bce5760405162461bcd60e51b815260206004820152602360248201527f45524332303a207472616e7366657220746f20746865207a65726f206164647260448201526265737360e81b6064820152608401610639565b6001600160a01b0383165f90815260208190526040902054611bf190829061275f565b6001600160a01b038085165f908152602081905260408082209390935590841681522054611c20908290612858565b6001600160a01b038381165f818152602081815260409182902094909455518481529092918616917fddf252ad1be2c89b69c2b068fc378daa952ba7f163c4a11628f55a4df523b3ef9101611afb565b611c78611f6d565b61111181611fb6565b33611c8a6112e4565b6001600160a01b031614610ffa5760405163118cdaa760e01b8152336004820152602401610639565b6001600160a01b038216611d095760405162461bcd60e51b815260206004820152601f60248201527f45524332303a206d696e7420746f20746865207a65726f2061646472657373006044820152606401610639565b80600254611d179190612858565b6002556001600160a01b0382165f90815260208190526040902054611d3d908290612858565b6001600160a01b0383165f81815260208181526040808320949094559251848152919290917fddf252ad1be2c89b69c2b068fc378daa952ba7f163c4a11628f55a4df523b3ef910161156c565b5f42443343604051602001611dca9493929190938452602084019290925260601b6bffffffffffffffffffffffff19166040830152605482015260740190565b60405160208183030381529060405280519060200120905090565b7f9016d09d72d40fdae2fd8ceac6b6234c7706214fd39c1cd1e609a0528c19930080546001600160a01b031981166001600160a01b03848116918217845560405192169182907f8be0079c531659141344cd1fd0a4f28419497f9722a3daafe3b4186f6b6457e0905f90a3505050565b600260395403611e7857604051633ee5aeb560e01b815260040160405180910390fd5b6002603955565b6001600160a01b038216611edf5760405162461bcd60e51b815260206004820152602160248201527f45524332303a206275726e2066726f6d20746865207a65726f206164647265736044820152607360f81b6064820152608401610639565b6001600160a01b0382165f90815260208190526040902054611f0290829061275f565b6001600160a01b0383165f90815260208190526040902055600254611f2890829061275f565b6002556040518181525f906001600160a01b038416907fddf252ad1be2c89b69c2b068fc378daa952ba7f163c4a11628f55a4df523b3ef9060200161156c565b505050565b7ff0c57e16840df040f15088dc2f81fe391c3923bec73e23a9662efc9c229c6a0054600160401b900460ff16610ffa57604051631afcd79f60e31b815260040160405180910390fd5b6119b2611f6d565b5f81518084528060208401602086015e5f602082860101526020601f19601f83011685010191505092915050565b602081525f6106e96020830184611fbe565b6001600160a01b0381168114611111575f5ffd5b5f5f60408385031215612023575f5ffd5b823561202e81611ffe565b946020939093013593505050565b5f5f5f6060848603121561204e575f5ffd5b833561205981611ffe565b9250602084013561206981611ffe565b929592945050506040919091013590565b634e487b7160e01b5f52604160045260245ffd5b604051606081016001600160401b03811182821017156120b0576120b061207a565b60405290565b604051608081016001600160401b03811182821017156120b0576120b061207a565b60405161010081016001600160401b03811182821017156120b0576120b061207a565b604051601f8201601f191681016001600160401b03811182821017156121235761212361207a565b604052919050565b5f6001600160401b038211156121435761214361207a565b50601f01601f191660200190565b5f61216361215e8461212b565b6120fb565b9050828152838383011115612176575f5ffd5b828260208301375f602084830101529392505050565b5f6020828403121561219c575f5ffd5b81356001600160401b038111156121b1575f5ffd5b8201601f810184136121c1575f5ffd5b6121d084823560208401612151565b949350505050565b6001600160401b038151168252602081015160208301525f6040820151606060408501526121d06060850182611fbe565b602081525f6106e960208301846121d8565b5f82601f83011261222a575f5ffd5b6106e983833560208501612151565b5f5f5f5f6080858703121561224c575f5ffd5b843561225781611ffe565b935060208501356001600160401b03811115612271575f5ffd5b61227d8782880161221b565b93505060408501356001600160401b03811115612298575f5ffd5b6122a48782880161221b565b925050606085013560ff811681146122ba575f5ffd5b939692955090935050565b5f602082840312156122d5575f5ffd5b81356001600160401b038111156122ea575f5ffd5b8201606081850312156106e9575f5ffd5b5f8151808452602084019350602083015f5b82811015612351578151805187526020810151602088015260408101516040880152606081015160608801525060808601955060208201915060018101905061230d565b5093949350505050565b5f82825180855260208501945060208160051b830101602085015f5b838110156123a957601f198584030188526123938383516121d8565b6020988901989093509190910190600101612377565b50909695505050505050565b602081526123cf6020820183516001600160a01b03169052565b602082015160408201525f60408301516123f1606084018263ffffffff169052565b50606083015163ffffffff8116608084015250608083015160a083015260a083015161010060c08401526124296101208401826122fb565b905060c0840151601f198483030160e085015261244682826122fb565b91505060e0840151601f1984830301610100850152612465828261235b565b95945050505050565b5f5f83601f84011261247e575f5ffd5b5081356001600160401b03811115612494575f5ffd5b6020830191508360208260051b85010111156124ae575f5ffd5b9250929050565b5f5f5f5f604085870312156124c8575f5ffd5b84356001600160401b038111156124dd575f5ffd5b6124e98782880161246e565b90955093505060208501356001600160401b03811115612507575f5ffd5b6125138782880161246e565b95989497509550505050565b80516001600160a01b039081168352602080830151908401526040808301516001600160401b03169084015260608083015190911690830152608090810151910152565b60a08101610609828461251f565b5f60208284031215612581575f5ffd5b81356106e981611ffe565b5f6020828403121561259c575f5ffd5b5035919050565b6001600160a01b038316815260c081016106e9602083018461251f565b5f5f83601f8401126125d0575f5ffd5b5081356001600160401b038111156125e6575f5ffd5b6020830191508360208285010111156124ae575f5ffd5b5f5f5f5f5f60608688031215612611575f5ffd5b8535945060208601356001600160401b0381111561262d575f5ffd5b612639888289016125c0565b90955093505060408601356001600160401b03811115612657575f5ffd5b612663888289016125c0565b969995985093965092949392505050565b5f5f60208385031215612685575f5ffd5b82356001600160401b0381111561269a575f5ffd5b6126a6858286016125c0565b90969095509350505050565b5f5f604083850312156126c3575f5ffd5b82356126ce81611ffe565b915060208301356126de81611ffe565b809150509250929050565b600181811c908216806126fd57607f821691505b60208210810361271b57634e487b7160e01b5f52602260045260245ffd5b50919050565b60208082526010908201526f14185d5cd8589b194e881c185d5cd95960821b604082015260600190565b634e487b7160e01b5f52601160045260245ffd5b818103818111156106095761060961274b565b80516001600160401b0381168114612788575f5ffd5b919050565b5f6060828403121561279d575f5ffd5b6127a561208e565b90506127b082612772565b81526020828101519082015260408201516001600160401b038111156127d4575f5ffd5b8201601f810184136127e4575f5ffd5b80516127f261215e8261212b565b818152856020838501011115612806575f5ffd5b8160208401602083015e5f6020838301015280604085015250505092915050565b5f60208284031215612837575f5ffd5b81516001600160401b0381111561284c575f5ffd5b6121d08482850161278d565b808201808211156106095761060961274b565b6020808252601f908201527f696e76616c696420617267756d656e74202d20656d70747920737472696e6700604082015260600190565b601f821115611f6857805f5260205f20601f840160051c810160208510156128c75750805b601f840160051c820191505b81811015610f4c575f81556001016128d3565b81516001600160401b038111156128ff576128ff61207a565b6129138161290d84546126e9565b846128a2565b6020601f821160018114612945575f831561292e5750848201515b5f19600385901b1c1916600184901b178455610f4c565b5f84815260208120601f198516915b828110156129745787850151825560209485019460019092019101612954565b508482101561299157868401515f19600387901b60f8161c191681555b50505050600190811b01905550565b5f5f83546129ad816126e9565b6001821680156129c457600181146129d957612a06565b60ff1983168652811515820286019350612a06565b865f5260205f205f5b838110156129fe578154888201526001909101906020016129e2565b505081860193505b509195945050505050565b60ff83168152604060208201525f6121d06040830184611fbe565b5f5f8335601e19843603018112612a41575f5ffd5b8301803591506001600160401b03821115612a5a575f5ffd5b6020019150368190038213156124ae575f5ffd5b634e487b7160e01b5f52603260045260245ffd5b63ffffffff81168114611111575f5ffd5b5f60208284031215612aa3575f5ffd5b81356106e981612a82565b805161278881611ffe565b5f60a0828403128015612aca575f5ffd5b5060405160a081016001600160401b0381118282101715612aed57612aed61207a565b6040528251612afb81611ffe565b815260208381015190820152612b1360408401612772565b60408201526060830151612b2681611ffe565b60608201526080928301519281019290925250919050565b81835281816020850137505f828201602090810191909152601f909101601f19169091010190565b602081525f6121d0602083018486612b3e565b6001600160401b03831115612b9057612b9061207a565b612ba483612b9e83546126e9565b836128a2565b5f601f841160018114612bd5575f8515612bbe5750838201355b5f19600387901b1c1916600186901b178355610f4c565b5f83815260208120601f198716915b82811015612c045786850135825560209485019460019092019101612be4565b5086821015612c20575f1960f88860031b161c19848701351681555b505060018560011b0183555050505050565b602081525f8235612c4281612a82565b63ffffffff1660208381019190915283013560408084019190915283013536849003601e19018112612c72575f5ffd5b83016020810190356001600160401b03811115612c8d575f5ffd5b803603821315612c9b575f5ffd5b606080850152612465608085018284612b3e565b805161278881612a82565b5f6001600160401b03821115612cd257612cd261207a565b5060051b60200190565b5f82601f830112612ceb575f5ffd5b8151612cf961215e82612cba565b8082825260208201915060208360071b860101925085831115612d1a575f5ffd5b602085015b83811015612d705760808188031215612d36575f5ffd5b612d3e6120b6565b815181526020808301518183015260408084015190830152606080840151908301529084529290920191608001612d1f565b5095945050505050565b5f82601f830112612d89575f5ffd5b8151612d9761215e82612cba565b8082825260208201915060208360051b860101925085831115612db8575f5ffd5b602085015b83811015612d705780516001600160401b03811115612dda575f5ffd5b612de9886020838a010161278d565b84525060209283019201612dbd565b5f60208284031215612e08575f5ffd5b81516001600160401b03811115612e1d575f5ffd5b82016101008185031215612e2f575f5ffd5b612e376120d8565b612e4082612aae565b815260208281015190820152612e5860408301612caf565b6040820152612e6960608301612caf565b60608201526080828101519082015260a08201516001600160401b03811115612e90575f5ffd5b612e9c86828501612cdc565b60a08301525060c08201516001600160401b03811115612eba575f5ffd5b612ec686828501612cdc565b60c08301525060e08201516001600160401b03811115612ee4575f5ffd5b612ef086828501612d7a565b60e08301525094935050505056fea2646970667358221220c23d01579f8ba67da227a08590c57d97a7d604988598bb3193b11decadf97fc764736f6c634300081c0033",
    "linkReferences": {}
  },
  "methodIdentifiers": {
    "allowance(address,address)": "dd62ed3e",
    "approve(address,uint256)": "095ea7b3",
    "balanceOf(address)": "70a08231",
    "batchBurn(address[],uint256[])": "4a6cc677",
    "batchMint(address[],uint256[])": "68573107",
    "batchTransfer(address[],uint256[])": "88d695b2",
    "burn(address,uint256)": "9dc29fac",
    "cancel(bytes32)": "c4d252f5",
    "confirm(bytes32)": "797af627",
    "decimals()": "313ce567",
    "decode7683FillInstruction(bytes)": "25db3796",
    "decode7683OrderData(bytes)": "5788015a",
    "decreaseAllowance(address,uint256)": "a457c2d7",
    "fill(bytes32,bytes,bytes)": "82e2c43f",
    "increaseAllowance(address,uint256)": "39509351",
    "init(address,string,string,uint8)": "3bf73798",
    "mint(address,uint256)": "40c10f19",
    "name()": "06fdde03",
    "open((uint32,bytes32,bytes))": "e917a962",
    "owner()": "8da5cb5b",
    "pause()": "8456cb59",
    "paused()": "5c975abb",
    "pendingOrders(bytes32)": "7b55766f",
    "renounceOwnership()": "715018a6",
    "resolve((uint32,bytes32,bytes))": "41b477dd",
    "setName(string)": "c47f0027",
    "setSymbol(string)": "b84c8246",
    "symbol()": "95d89b41",
    "totalSupply()": "18160ddd",
    "transfer(address,uint256)": "a9059cbb",
    "transferFrom(address,address,uint256)": "23b872dd",
    "transferOwnership(address)": "f2fde38b",
    "unpause()": "3f4ba83a",
    "version()": "54fd4d50"
  },
  "id": 31
}