{
  "abi": [
    {
      "type": "constructor",
      "inputs": [
        {
          "name": "_initialOwner",
          "type": "address",
          "internalType": "address"
        },
        {
          "name": "_tokenName",
          "type": "string",
          "internalType": "string"
        },
        {
          "name": "_tokenSymbol",
          "type": "string",
          "internalType": "string"
        },
        {
          "name": "_initialSupply",
          "type": "uint256",
          "internalType": "uint256"
        }
      ],
      "stateMutability": "nonpayable"
    },
    {
      "type": "function",
      "name": "allowance",
      "inputs": [
        {
          "name": "owner",
          "type": "address",
          "internalType": "address"
        },
        {
          "name": "spender",
          "type": "address",
          "internalType": "address"
        }
      ],
      "outputs": [
        {
          "name": "",
          "type": "uint256",
          "internalType": "uint256"
        }
      ],
      "stateMutability": "view"
    },
    {
      "type": "function",
      "name": "approve",
      "inputs": [
        {
          "name": "spender",
          "type": "address",
          "internalType": "address"
        },
        {
          "name": "value",
          "type": "uint256",
          "internalType": "uint256"
        }
      ],
      "outputs": [
        {
          "name": "",
          "type": "bool",
          "internalType": "bool"
        }
      ],
      "stateMutability": "nonpayable"
    },
    {
      "type": "function",
      "name": "balanceOf",
      "inputs": [
        {
          "name": "account",
          "type": "address",
          "internalType": "address"
        }
      ],
      "outputs": [
        {
          "name": "",
          "type": "uint256",
          "internalType": "uint256"
        }
      ],
      "stateMutability": "view"
    },
    {
      "type": "function",
      "name": "cancel",
      "inputs": [
        {
          "name": "orderId",
          "type": "bytes32",
          "internalType": "bytes32"
        }
      ],
      "outputs": [],
      "stateMutability": "nonpayable"
    },
    {
      "type": "function",
      "name": "confirm",
      "inputs": [
        {
          "name": "orderId",
          "type": "bytes32",
          "internalType": "bytes32"
        }
      ],
      "outputs": [],
      "stateMutability": "nonpayable"
    },
    {
      "type": "function",
      "name": "decimals",
      "inputs": [],
      "outputs": [
        {
          "name": "",
          "type": "uint8",
          "internalType": "uint8"
        }
      ],
      "stateMutability": "view"
    },
    {
      "type": "function",
      "name": "decode7683FillInstruction",
      "inputs": [
        {
          "name": "fillInstruction",
          "type": "bytes",
          "internalType": "bytes"
        }
      ],
      "outputs": [
        {
          "name": "",
          "type": "tuple",
          "internalType": "struct FillInstruction",
          "components": [
            {
              "name": "destinationChainId",
              "type": "uint64",
              "internalType": "uint64"
            },
            {
              "name": "destinationSettler",
              "type": "bytes32",
              "internalType": "bytes32"
            },
            {
              "name": "originData",
              "type": "bytes",
              "internalType": "bytes"
            }
          ]
        }
      ],
      "stateMutability": "pure"
    },
    {
      "type": "function",
      "name": "decode7683OrderData",
      "inputs": [
        {
          "name": "orderData",
          "type": "bytes",
          "internalType": "bytes"
        }
      ],
      "outputs": [
        {
          "name": "",
          "type": "tuple",
          "internalType": "struct InteropToken.OrderData",
          "components": [
            {
              "name": "to",
              "type": "address",
              "internalType": "address"
            },
            {
              "name": "amount",
              "type": "uint256",
              "internalType": "uint256"
            },
            {
              "name": "destinationChainId",
              "type": "uint64",
              "internalType": "uint64"
            },
            {
              "name": "feeToken",
              "type": "address",
              "internalType": "address"
            },
            {
              "name": "feeValue",
              "type": "uint256",
              "internalType": "uint256"
            }
          ]
        }
      ],
      "stateMutability": "pure"
    },
    {
      "type": "function",
      "name": "fill",
      "inputs": [
        {
          "name": "orderId",
          "type": "bytes32",
          "internalType": "bytes32"
        },
        {
          "name": "originData",
          "type": "bytes",
          "internalType": "bytes"
        },
        {
          "name": "fillerData",
          "type": "bytes",
          "internalType": "bytes"
        }
      ],
      "outputs": [],
      "stateMutability": "nonpayable"
    },
    {
      "type": "function",
      "name": "name",
      "inputs": [],
      "outputs": [
        {
          "name": "",
          "type": "string",
          "internalType": "string"
        }
      ],
      "stateMutability": "view"
    },
    {
      "type": "function",
      "name": "open",
      "inputs": [
        {
          "name": "order",
          "type": "tuple",
          "internalType": "struct OnchainCrossChainOrder",
          "components": [
            {
              "name": "fillDeadline",
              "type": "uint32",
              "internalType": "uint32"
            },
            {
              "name": "orderDataType",
              "type": "bytes32",
              "internalType": "bytes32"
            },
            {
              "name": "orderData",
              "type": "bytes",
              "internalType": "bytes"
            }
          ]
        }
      ],
      "outputs": [],
      "stateMutability": "nonpayable"
    },
    {
      "type": "function",
      "name": "owner",
      "inputs": [],
      "outputs": [
        {
          "name": "",
          "type": "address",
          "internalType": "address"
        }
      ],
      "stateMutability": "view"
    },
    {
      "type": "function",
      "name": "pendingOrders",
      "inputs": [
        {
          "name": "",
          "type": "bytes32",
          "internalType": "bytes32"
        }
      ],
      "outputs": [
        {
          "name": "from",
          "type": "address",
          "internalType": "address"
        },
        {
          "name": "orderData",
          "type": "tuple",
          "internalType": "struct InteropToken.OrderData",
          "components": [
            {
              "name": "to",
              "type": "address",
              "internalType": "address"
            },
            {
              "name": "amount",
              "type": "uint256",
              "internalType": "uint256"
            },
            {
              "name": "destinationChainId",
              "type": "uint64",
              "internalType": "uint64"
            },
            {
              "name": "feeToken",
              "type": "address",
              "internalType": "address"
            },
            {
              "name": "feeValue",
              "type": "uint256",
              "internalType": "uint256"
            }
          ]
        }
      ],
      "stateMutability": "view"
    },
    {
      "type": "function",
      "name": "renounceOwnership",
      "inputs": [],
      "outputs": [],
      "stateMutability": "nonpayable"
    },
    {
      "type": "function",
      "name": "resolve",
      "inputs": [
        {
          "name": "order",
          "type": "tuple",
          "internalType": "struct OnchainCrossChainOrder",
          "components": [
            {
              "name": "fillDeadline",
              "type": "uint32",
              "internalType": "uint32"
            },
            {
              "name": "orderDataType",
              "type": "bytes32",
              "internalType": "bytes32"
            },
            {
              "name": "orderData",
              "type": "bytes",
              "internalType": "bytes"
            }
          ]
        }
      ],
      "outputs": [
        {
          "name": "",
          "type": "tuple",
          "internalType": "struct ResolvedCrossChainOrder",
          "components": [
            {
              "name": "user",
              "type": "address",
              "internalType": "address"
            },
            {
              "name": "originChainId",
              "type": "uint256",
              "internalType": "uint256"
            },
            {
              "name": "openDeadline",
              "type": "uint32",
              "internalType": "uint32"
            },
            {
              "name": "fillDeadline",
              "type": "uint32",
              "internalType": "uint32"
            },
            {
              "name": "orderId",
              "type": "bytes32",
              "internalType": "bytes32"
            },
            {
              "name": "maxSpent",
              "type": "tuple[]",
              "internalType": "struct Output[]",
              "components": [
                {
                  "name": "token",
                  "type": "bytes32",
                  "internalType": "bytes32"
                },
                {
                  "name": "amount",
                  "type": "uint256",
                  "internalType": "uint256"
                },
                {
                  "name": "recipient",
                  "type": "bytes32",
                  "internalType": "bytes32"
                },
                {
                  "name": "chainId",
                  "type": "uint256",
                  "internalType": "uint256"
                }
              ]
            },
            {
              "name": "minReceived",
              "type": "tuple[]",
              "internalType": "struct Output[]",
              "components": [
                {
                  "name": "token",
                  "type": "bytes32",
                  "internalType": "bytes32"
                },
                {
                  "name": "amount",
                  "type": "uint256",
                  "internalType": "uint256"
                },
                {
                  "name": "recipient",
                  "type": "bytes32",
                  "internalType": "bytes32"
                },
                {
                  "name": "chainId",
                  "type": "uint256",
                  "internalType": "uint256"
                }
              ]
            },
            {
              "name": "fillInstructions",
              "type": "tuple[]",
              "internalType": "struct FillInstruction[]",
              "components": [
                {
                  "name": "destinationChainId",
                  "type": "uint64",
                  "internalType": "uint64"
                },
                {
                  "name": "destinationSettler",
                  "type": "bytes32",
                  "internalType": "bytes32"
                },
                {
                  "name": "originData",
                  "type": "bytes",
                  "internalType": "bytes"
                }
              ]
            }
          ]
        }
      ],
      "stateMutability": "view"
    },
    {
      "type": "function",
      "name": "symbol",
      "inputs": [],
      "outputs": [
        {
          "name": "",
          "type": "string",
          "internalType": "string"
        }
      ],
      "stateMutability": "view"
    },
    {
      "type": "function",
      "name": "totalSupply",
      "inputs": [],
      "outputs": [
        {
          "name": "",
          "type": "uint256",
          "internalType": "uint256"
        }
      ],
      "stateMutability": "view"
    },
    {
      "type": "function",
      "name": "transfer",
      "inputs": [
        {
          "name": "to",
          "type": "address",
          "internalType": "address"
        },
        {
          "name": "value",
          "type": "uint256",
          "internalType": "uint256"
        }
      ],
      "outputs": [
        {
          "name": "",
          "type": "bool",
          "internalType": "bool"
        }
      ],
      "stateMutability": "nonpayable"
    },
    {
      "type": "function",
      "name": "transferFrom",
      "inputs": [
        {
          "name": "from",
          "type": "address",
          "internalType": "address"
        },
        {
          "name": "to",
          "type": "address",
          "internalType": "address"
        },
        {
          "name": "value",
          "type": "uint256",
          "internalType": "uint256"
        }
      ],
      "outputs": [
        {
          "name": "",
          "type": "bool",
          "internalType": "bool"
        }
      ],
      "stateMutability": "nonpayable"
    },
    {
      "type": "function",
      "name": "transferOwnership",
      "inputs": [
        {
          "name": "newOwner",
          "type": "address",
          "internalType": "address"
        }
      ],
      "outputs": [],
      "stateMutability": "nonpayable"
    },
    {
      "type": "event",
      "name": "Approval",
      "inputs": [
        {
          "name": "owner",
          "type": "address",
          "indexed": true,
          "internalType": "address"
        },
        {
          "name": "spender",
          "type": "address",
          "indexed": true,
          "internalType": "address"
        },
        {
          "name": "value",
          "type": "uint256",
          "indexed": false,
          "internalType": "uint256"
        }
      ],
      "anonymous": false
    },
    {
      "type": "event",
      "name": "Cancel",
      "inputs": [
        {
          "name": "orderId",
          "type": "bytes32",
          "indexed": true,
          "internalType": "bytes32"
        }
      ],
      "anonymous": false
    },
    {
      "type": "event",
      "name": "Confirm",
      "inputs": [
        {
          "name": "orderId",
          "type": "bytes32",
          "indexed": true,
          "internalType": "bytes32"
        }
      ],
      "anonymous": false
    },
    {
      "type": "event",
      "name": "Fill",
      "inputs": [
        {
          "name": "orderId",
          "type": "bytes32",
          "indexed": true,
          "internalType": "bytes32"
        }
      ],
      "anonymous": false
    },
    {
      "type": "event",
      "name": "Open",
      "inputs": [
        {
          "name": "orderId",
          "type": "bytes32",
          "indexed": true,
          "internalType": "bytes32"
        },
        {
          "name": "resolvedOrder",
          "type": "tuple",
          "indexed": false,
          "internalType": "struct ResolvedCrossChainOrder",
          "components": [
            {
              "name": "user",
              "type": "address",
              "internalType": "address"
            },
            {
              "name": "originChainId",
              "type": "uint256",
              "internalType": "uint256"
            },
            {
              "name": "openDeadline",
              "type": "uint32",
              "internalType": "uint32"
            },
            {
              "name": "fillDeadline",
              "type": "uint32",
              "internalType": "uint32"
            },
            {
              "name": "orderId",
              "type": "bytes32",
              "internalType": "bytes32"
            },
            {
              "name": "maxSpent",
              "type": "tuple[]",
              "internalType": "struct Output[]",
              "components": [
                {
                  "name": "token",
                  "type": "bytes32",
                  "internalType": "bytes32"
                },
                {
                  "name": "amount",
                  "type": "uint256",
                  "internalType": "uint256"
                },
                {
                  "name": "recipient",
                  "type": "bytes32",
                  "internalType": "bytes32"
                },
                {
                  "name": "chainId",
                  "type": "uint256",
                  "internalType": "uint256"
                }
              ]
            },
            {
              "name": "minReceived",
              "type": "tuple[]",
              "internalType": "struct Output[]",
              "components": [
                {
                  "name": "token",
                  "type": "bytes32",
                  "internalType": "bytes32"
                },
                {
                  "name": "amount",
                  "type": "uint256",
                  "internalType": "uint256"
                },
                {
                  "name": "recipient",
                  "type": "bytes32",
                  "internalType": "bytes32"
                },
                {
                  "name": "chainId",
                  "type": "uint256",
                  "internalType": "uint256"
                }
              ]
            },
            {
              "name": "fillInstructions",
              "type": "tuple[]",
              "internalType": "struct FillInstruction[]",
              "components": [
                {
                  "name": "destinationChainId",
                  "type": "uint64",
                  "internalType": "uint64"
                },
                {
                  "name": "destinationSettler",
                  "type": "bytes32",
                  "internalType": "bytes32"
                },
                {
                  "name": "originData",
                  "type": "bytes",
                  "internalType": "bytes"
                }
              ]
            }
          ]
        }
      ],
      "anonymous": false
    },
    {
      "type": "event",
      "name": "OwnershipTransferred",
      "inputs": [
        {
          "name": "previousOwner",
          "type": "address",
          "indexed": true,
          "internalType": "address"
        },
        {
          "name": "newOwner",
          "type": "address",
          "indexed": true,
          "internalType": "address"
        }
      ],
      "anonymous": false
    },
    {
      "type": "event",
      "name": "Transfer",
      "inputs": [
        {
          "name": "from",
          "type": "address",
          "indexed": true,
          "internalType": "address"
        },
        {
          "name": "to",
          "type": "address",
          "indexed": true,
          "internalType": "address"
        },
        {
          "name": "value",
          "type": "uint256",
          "indexed": false,
          "internalType": "uint256"
        }
      ],
      "anonymous": false
    },
    {
      "type": "error",
      "name": "ERC20InsufficientAllowance",
      "inputs": [
        {
          "name": "spender",
          "type": "address",
          "internalType": "address"
        },
        {
          "name": "allowance",
          "type": "uint256",
          "internalType": "uint256"
        },
        {
          "name": "needed",
          "type": "uint256",
          "internalType": "uint256"
        }
      ]
    },
    {
      "type": "error",
      "name": "ERC20InsufficientBalance",
      "inputs": [
        {
          "name": "sender",
          "type": "address",
          "internalType": "address"
        },
        {
          "name": "balance",
          "type": "uint256",
          "internalType": "uint256"
        },
        {
          "name": "needed",
          "type": "uint256",
          "internalType": "uint256"
        }
      ]
    },
    {
      "type": "error",
      "name": "ERC20InvalidApprover",
      "inputs": [
        {
          "name": "approver",
          "type": "address",
          "internalType": "address"
        }
      ]
    },
    {
      "type": "error",
      "name": "ERC20InvalidReceiver",
      "inputs": [
        {
          "name": "receiver",
          "type": "address",
          "internalType": "address"
        }
      ]
    },
    {
      "type": "error",
      "name": "ERC20InvalidSender",
      "inputs": [
        {
          "name": "sender",
          "type": "address",
          "internalType": "address"
        }
      ]
    },
    {
      "type": "error",
      "name": "ERC20InvalidSpender",
      "inputs": [
        {
          "name": "spender",
          "type": "address",
          "internalType": "address"
        }
      ]
    },
    {
      "type": "error",
      "name": "OrderNotPending",
      "inputs": [
        {
          "name": "orderId",
          "type": "bytes32",
          "internalType": "bytes32"
        }
      ]
    },
    {
      "type": "error",
      "name": "OwnableInvalidOwner",
      "inputs": [
        {
          "name": "owner",
          "type": "address",
          "internalType": "address"
        }
      ]
    },
    {
      "type": "error",
      "name": "OwnableUnauthorizedAccount",
      "inputs": [
        {
          "name": "account",
          "type": "address",
          "internalType": "address"
        }
      ]
    },
    {
      "type": "error",
      "name": "ReentrancyGuardReentrantCall",
      "inputs": []
    },
    {
      "type": "error",
      "name": "UnauthorizedFiller",
      "inputs": [
        {
          "name": "sender",
          "type": "address",
          "internalType": "address"
        },
        {
          "name": "filler",
          "type": "address",
          "internalType": "address"
        }
      ]
    },
    {
      "type": "error",
      "name": "WrongOrderType",
      "inputs": []
    }
  ],
  "bytecode": {
    "object": "0x60a0604052600780546001600160a01b031916737fa9385be102ac3eac297483dd6233d62b3e14961790557f8ebd7f9ebdeca74f331f7721f043d22079b0c7b60a8380dc989ed502592a433a608052348015610059575f5ffd5b506040516122fc3803806122fc83398101604081905261007891610333565b83838360036100878382610441565b5060046100948282610441565b5050506001600160a01b0381166100c557604051631e4fbdf760e01b81525f60048201526024015b60405180910390fd5b6100ce816100e7565b5060016006556100de8482610138565b50505050610520565b600580546001600160a01b038381166001600160a01b0319831681179093556040519116919082907f8be0079c531659141344cd1fd0a4f28419497f9722a3daafe3b4186f6b6457e0905f90a35050565b6001600160a01b0382166101615760405163ec442f0560e01b81525f60048201526024016100bc565b61016c5f8383610170565b5050565b6001600160a01b03831661019a578060025f82825461018f91906104fb565b9091555061020a9050565b6001600160a01b0383165f90815260208190526040902054818110156101ec5760405163391434e360e21b81526001600160a01b038516600482015260248101829052604481018390526064016100bc565b6001600160a01b0384165f9081526020819052604090209082900390555b6001600160a01b03821661022657600280548290039055610244565b6001600160a01b0382165f9081526020819052604090208054820190555b816001600160a01b0316836001600160a01b03167fddf252ad1be2c89b69c2b068fc378daa952ba7f163c4a11628f55a4df523b3ef8360405161028991815260200190565b60405180910390a3505050565b634e487b7160e01b5f52604160045260245ffd5b5f82601f8301126102b9575f5ffd5b81516001600160401b038111156102d2576102d2610296565b604051601f8201601f19908116603f011681016001600160401b038111828210171561030057610300610296565b604052818152838201602001851015610317575f5ffd5b8160208501602083015e5f918101602001919091529392505050565b5f5f5f5f60808587031215610346575f5ffd5b84516001600160a01b038116811461035c575f5ffd5b60208601519094506001600160401b03811115610377575f5ffd5b610383878288016102aa565b604087015190945090506001600160401b038111156103a0575f5ffd5b6103ac878288016102aa565b606096909601519497939650505050565b600181811c908216806103d157607f821691505b6020821081036103ef57634e487b7160e01b5f52602260045260245ffd5b50919050565b601f82111561043c57805f5260205f20601f840160051c8101602085101561041a5750805b601f840160051c820191505b81811015610439575f8155600101610426565b50505b505050565b81516001600160401b0381111561045a5761045a610296565b61046e8161046884546103bd565b846103f5565b6020601f8211600181146104a0575f83156104895750848201515b5f19600385901b1c1916600184901b178455610439565b5f84815260208120601f198516915b828110156104cf57878501518255602094850194600190920191016104af565b50848210156104ec57868401515f19600387901b60f8161c191681555b50505050600190811b01905550565b8082018082111561051a57634e487b7160e01b5f52601160045260245ffd5b92915050565b608051611dc46105385f395f6104e00152611dc45ff3fe608060405234801561000f575f5ffd5b5060043610610127575f3560e01c8063797af627116100a9578063a9059cbb1161006e578063a9059cbb14610305578063c4d252f514610318578063dd62ed3e1461032b578063e917a96214610363578063f2fde38b14610376575f5ffd5b8063797af627146102325780637b55766f1461024557806382e2c43f146102cf5780638da5cb5b146102e257806395d89b41146102fd575f5ffd5b8063313ce567116100ef578063313ce567146101b157806341b477dd146101c05780635788015a146101e057806370a0823114610200578063715018a614610228575f5ffd5b806306fdde031461012b578063095ea7b31461014957806318160ddd1461016c57806323b872dd1461017e57806325db379614610191575b5f5ffd5b610133610389565b60405161014091906112e6565b60405180910390f35b61015c61015736600461130c565b610419565b6040519015158152602001610140565b6002545b604051908152602001610140565b61015c61018c366004611336565b610432565b6101a461019f36600461144b565b610457565b60405161014091906114fd565b60405160128152602001610140565b6101d36101ce36600461150f565b610486565b60405161014091906115ff565b6101f36101ee36600461144b565b610824565b60405161014091906116fc565b61017061020e36600461170a565b6001600160a01b03165f9081526020819052604090205490565b610230610860565b005b610230610240366004611725565b610873565b6102c1610253366004611725565b600860209081525f9182526040918290208054835160a08101855260018301546001600160a01b03908116825260028401549482019490945260038301546001600160401b03811695820195909552600160401b909404831660608501526004909101546080840152169082565b60405161014092919061173c565b6102306102dd36600461179d565b610990565b6005546040516001600160a01b039091168152602001610140565b610133610a9d565b61015c61031336600461130c565b610aac565b610230610326366004611725565b610ab9565b610170610339366004611814565b6001600160a01b039182165f90815260016020908152604080832093909416825291909152205490565b61023061037136600461150f565b610c55565b61023061038436600461170a565b610e60565b6060600380546103989061184b565b80601f01602080910402602001604051908101604052809291908181526020018280546103c49061184b565b801561040f5780601f106103e65761010080835404028352916020019161040f565b820191905f5260205f20905b8154815290600101906020018083116103f257829003601f168201915b5050505050905090565b5f33610426818585610e9a565b60019150505b92915050565b5f3361043f858285610eac565b61044a858585610f28565b60019150505b9392505050565b60408051606080820183525f8083526020830152918101919091528180602001905181019061042c9190611938565b6104de6040518061010001604052805f6001600160a01b031681526020015f81526020015f63ffffffff1681526020015f63ffffffff1681526020015f81526020016060815260200160608152602001606081525090565b7f00000000000000000000000000000000000000000000000000000000000000008260200135146105225760405163bef31f6b60e01b815260040160405180910390fd5b5f61056c6105336040850185611969565b8080601f0160208091040260200160405190810160405280939291908181526020018383808284375f9201919091525061082492505050565b6040805160018082528183019092529192505f9190816020015b6105ad60405180608001604052805f81526020015f81526020015f81526020015f81525090565b8152602001906001900390816105865750506040805160018082528183019092529192505f9190602082015b61060060405180608001604052805f81526020015f81526020015f81526020015f81525090565b8152602001906001900390816105d95750506040805160018082528183019092529192505f9190602082015b60408051606080820183525f80835260208301529181019190915281526020019060019003908161062c579050509050604051806080016040528061067b86606001516001600160a01b031690565b81526020018560800151815260200161069d865f01516001600160a01b031690565b815260200185604001516001600160401b0316815250835f815181106106c5576106c56119ab565b602002602001018190525060405180608001604052806106eb306001600160a01b031690565b8152602086810151908201526040015f815260200146815250825f81518110610716576107166119ab565b6020026020010181905250604051806060016040528085604001516001600160401b0316815260200161074f306001600160a01b031690565b81526020016107616040890189611969565b8080601f0160208091040260200160405190810160405280939291908181526020018383808284375f92018290525093909452505083518492506107a7576107a76119ab565b6020026020010181905250604051806101000160405280336001600160a01b0316815260200146815260200163ffffffff80168152602001875f0160208101906107f191906119d0565b63ffffffff168152602001610804610f85565b815260200184815260200183815260200182815250945050505050919050565b6040805160a0810182525f80825260208083018290529282018190526060820181905260808201528251909161042c91840181019084016119f6565b610868610fe0565b6108715f61100d565b565b61087b61105e565b6007546001600160a01b031633146108c057600754604051639946bd5360e01b81523360048201526001600160a01b0390911660248201526044015b60405180910390fd5b5f818152600860205260409020546001600160a01b03166109155760405162461bcd60e51b815260206004820152600f60248201526e13dc99195c881b9bdd08199bdd5b99608a1b60448201526064016108b7565b5f8181526008602052604080822080546001600160a01b031990811682556001820180549091169055600281018390556003810180546001600160e01b03191690556004018290555182917f94d94affe11eeecd469f8d64826f21e58723e70a2d6f0a69d3475ec3f6ff6f6891a261098d6001600655565b50565b61099861105e565b6007546001600160a01b031633146109d857600754604051639946bd5360e01b81523360048201526001600160a01b0390911660248201526044016108b7565b5f858152600860205260409020546001600160a01b0316610a0f5760405163b0ec289d60e01b8152600481018690526024016108b7565b5f610a4e85858080601f0160208091040260200160405190810160405280939291908181526020018383808284375f9201919091525061082492505050565b9050610a61815f01518260200151611088565b60405186907fddbfc9ff3f03002e3d81f56bc885f7e8a3b00e16b50939c32405d366c0bd5aa2905f90a250610a966001600655565b5050505050565b6060600480546103989061184b565b5f33610426818585610f28565b610ac161105e565b6007546001600160a01b03163314610b0157600754604051639946bd5360e01b81523360048201526001600160a01b0390911660248201526044016108b7565b5f818152600860205260408120600201549003610b525760405162461bcd60e51b815260206004820152600f60248201526e13dc99195c881b9bdd08199bdd5b99608a1b60448201526064016108b7565b5f818152600860209081526040918290208251808401845281546001600160a01b039081168252845160a081018652600184015482168152600284015481860190815260038501546001600160401b03811697830197909752600160401b9096049091166060820152600490920154608083015291820152805191519091610bdc91309190610f28565b5f8281526008602052604080822080546001600160a01b031990811682556001820180549091169055600281018390556003810180546001600160e01b03191690556004018290555183917fe8d9861dbc9c663ed3accd261bbe2fe01e0d3d9e5f51fa38523b265c7757a93a91a25061098d6001600655565b610c5d61105e565b5f610c6e6105336040840184611969565b6040516341b477dd60e01b81529091505f9030906341b477dd90610c96908690600401611aa3565b5f60405180830381865afa158015610cb0573d5f5f3e3d5ffd5b505050506040513d5f823e601f3d908101601f19168201604052610cd79190810190611c69565b60808101515f908152600860205260409020549091506001600160a01b031615610d3b5760405162461bcd60e51b81526020600482015260156024820152744f7264657220616c72656164792070656e64696e6760581b60448201526064016108b7565b6040805180820182523380825260208083018681526080808701515f90815260088452869020855181546001600160a01b039182166001600160a01b0319918216178355935180516001840180549184169190961617909455838501516002830155968301516003820180546060860151909916600160401b026001600160e01b03199099166001600160401b0390921691909117979097179096550151600490940193909355918401519091610df3913090610f28565b8160e001515f81518110610e0957610e096119ab565b602002602001015160400151805190602001207fa576d0af275d0c6207ef43ceee8c498a5d7a26b8157a32d3fdf361e64371628c83604051610e4b91906115ff565b60405180910390a250505061098d6001600655565b610e68610fe0565b6001600160a01b038116610e9157604051631e4fbdf760e01b81525f60048201526024016108b7565b61098d8161100d565b610ea783838360016110c0565b505050565b6001600160a01b038381165f908152600160209081526040808320938616835292905220545f19811015610f225781811015610f1457604051637dc7a0d960e11b81526001600160a01b038416600482015260248101829052604481018390526064016108b7565b610f2284848484035f6110c0565b50505050565b6001600160a01b038316610f5157604051634b637e8f60e11b81525f60048201526024016108b7565b6001600160a01b038216610f7a5760405163ec442f0560e01b81525f60048201526024016108b7565b610ea7838383611192565b5f42443343604051602001610fc59493929190938452602084019290925260601b6bffffffffffffffffffffffff19166040830152605482015260740190565b60405160208183030381529060405280519060200120905090565b6005546001600160a01b031633146108715760405163118cdaa760e01b81523360048201526024016108b7565b600580546001600160a01b038381166001600160a01b0319831681179093556040519116919082907f8be0079c531659141344cd1fd0a4f28419497f9722a3daafe3b4186f6b6457e0905f90a35050565b60026006540361108157604051633ee5aeb560e01b815260040160405180910390fd5b6002600655565b6001600160a01b0382166110b15760405163ec442f0560e01b81525f60048201526024016108b7565b6110bc5f8383611192565b5050565b6001600160a01b0384166110e95760405163e602df0560e01b81525f60048201526024016108b7565b6001600160a01b03831661111257604051634a1406b160e11b81525f60048201526024016108b7565b6001600160a01b038085165f9081526001602090815260408083209387168352929052208290558015610f2257826001600160a01b0316846001600160a01b03167f8c5be1e5ebec7d5bd14f71427d1e84f3dd0314c0f7b2291e5b200ac8c7c3b9258460405161118491815260200190565b60405180910390a350505050565b6001600160a01b0383166111bc578060025f8282546111b19190611d6f565b9091555061122c9050565b6001600160a01b0383165f908152602081905260409020548181101561120e5760405163391434e360e21b81526001600160a01b038516600482015260248101829052604481018390526064016108b7565b6001600160a01b0384165f9081526020819052604090209082900390555b6001600160a01b03821661124857600280548290039055611266565b6001600160a01b0382165f9081526020819052604090208054820190555b816001600160a01b0316836001600160a01b03167fddf252ad1be2c89b69c2b068fc378daa952ba7f163c4a11628f55a4df523b3ef836040516112ab91815260200190565b60405180910390a3505050565b5f81518084528060208401602086015e5f602082860101526020601f19601f83011685010191505092915050565b602081525f61045060208301846112b8565b6001600160a01b038116811461098d575f5ffd5b5f5f6040838503121561131d575f5ffd5b8235611328816112f8565b946020939093013593505050565b5f5f5f60608486031215611348575f5ffd5b8335611353816112f8565b92506020840135611363816112f8565b929592945050506040919091013590565b634e487b7160e01b5f52604160045260245ffd5b604051606081016001600160401b03811182821017156113aa576113aa611374565b60405290565b604051608081016001600160401b03811182821017156113aa576113aa611374565b60405161010081016001600160401b03811182821017156113aa576113aa611374565b604051601f8201601f191681016001600160401b038111828210171561141d5761141d611374565b604052919050565b5f6001600160401b0382111561143d5761143d611374565b50601f01601f191660200190565b5f6020828403121561145b575f5ffd5b81356001600160401b03811115611470575f5ffd5b8201601f81018413611480575f5ffd5b803561149361148e82611425565b6113f5565b8181528560208385010111156114a7575f5ffd5b816020840160208301375f91810160200191909152949350505050565b6001600160401b038151168252602081015160208301525f6040820151606060408501526114f560608501826112b8565b949350505050565b602081525f61045060208301846114c4565b5f6020828403121561151f575f5ffd5b81356001600160401b03811115611534575f5ffd5b820160608185031215610450575f5ffd5b5f8151808452602084019350602083015f5b8281101561159b5781518051875260208101516020880152604081015160408801526060810151606088015250608086019550602082019150600181019050611557565b5093949350505050565b5f82825180855260208501945060208160051b830101602085015f5b838110156115f357601f198584030188526115dd8383516114c4565b60209889019890935091909101906001016115c1565b50909695505050505050565b602081526116196020820183516001600160a01b03169052565b602082015160408201525f604083015161163b606084018263ffffffff169052565b50606083015163ffffffff8116608084015250608083015160a083015260a083015161010060c0840152611673610120840182611545565b905060c0840151601f198483030160e08501526116908282611545565b91505060e0840151601f19848303016101008501526116af82826115a5565b95945050505050565b80516001600160a01b039081168352602080830151908401526040808301516001600160401b03169084015260608083015190911690830152608090810151910152565b60a0810161042c82846116b8565b5f6020828403121561171a575f5ffd5b8135610450816112f8565b5f60208284031215611735575f5ffd5b5035919050565b6001600160a01b038316815260c0810161045060208301846116b8565b5f5f83601f840112611769575f5ffd5b5081356001600160401b0381111561177f575f5ffd5b602083019150836020828501011115611796575f5ffd5b9250929050565b5f5f5f5f5f606086880312156117b1575f5ffd5b8535945060208601356001600160401b038111156117cd575f5ffd5b6117d988828901611759565b90955093505060408601356001600160401b038111156117f7575f5ffd5b61180388828901611759565b969995985093965092949392505050565b5f5f60408385031215611825575f5ffd5b8235611830816112f8565b91506020830135611840816112f8565b809150509250929050565b600181811c9082168061185f57607f821691505b60208210810361187d57634e487b7160e01b5f52602260045260245ffd5b50919050565b80516001600160401b0381168114611899575f5ffd5b919050565b5f606082840312156118ae575f5ffd5b6118b6611388565b90506118c182611883565b81526020828101519082015260408201516001600160401b038111156118e5575f5ffd5b8201601f810184136118f5575f5ffd5b805161190361148e82611425565b818152856020838501011115611917575f5ffd5b8160208401602083015e5f6020838301015280604085015250505092915050565b5f60208284031215611948575f5ffd5b81516001600160401b0381111561195d575f5ffd5b6114f58482850161189e565b5f5f8335601e1984360301811261197e575f5ffd5b8301803591506001600160401b03821115611997575f5ffd5b602001915036819003821315611796575f5ffd5b634e487b7160e01b5f52603260045260245ffd5b63ffffffff8116811461098d575f5ffd5b5f602082840312156119e0575f5ffd5b8135610450816119bf565b8051611899816112f8565b5f60a0828403128015611a07575f5ffd5b5060405160a081016001600160401b0381118282101715611a2a57611a2a611374565b6040528251611a38816112f8565b815260208381015190820152611a5060408401611883565b60408201526060830151611a63816112f8565b60608201526080928301519281019290925250919050565b81835281816020850137505f828201602090810191909152601f909101601f19169091010190565b602081525f8235611ab3816119bf565b63ffffffff1660208381019190915283013560408084019190915283013536849003601e19018112611ae3575f5ffd5b83016020810190356001600160401b03811115611afe575f5ffd5b803603821315611b0c575f5ffd5b6060808501526116af608085018284611a7b565b8051611899816119bf565b5f6001600160401b03821115611b4357611b43611374565b5060051b60200190565b5f82601f830112611b5c575f5ffd5b8151611b6a61148e82611b2b565b8082825260208201915060208360071b860101925085831115611b8b575f5ffd5b602085015b83811015611be15760808188031215611ba7575f5ffd5b611baf6113b0565b815181526020808301518183015260408084015190830152606080840151908301529084529290920191608001611b90565b5095945050505050565b5f82601f830112611bfa575f5ffd5b8151611c0861148e82611b2b565b8082825260208201915060208360051b860101925085831115611c29575f5ffd5b602085015b83811015611be15780516001600160401b03811115611c4b575f5ffd5b611c5a886020838a010161189e565b84525060209283019201611c2e565b5f60208284031215611c79575f5ffd5b81516001600160401b03811115611c8e575f5ffd5b82016101008185031215611ca0575f5ffd5b611ca86113d2565b611cb1826119eb565b815260208281015190820152611cc960408301611b20565b6040820152611cda60608301611b20565b60608201526080828101519082015260a08201516001600160401b03811115611d01575f5ffd5b611d0d86828501611b4d565b60a08301525060c08201516001600160401b03811115611d2b575f5ffd5b611d3786828501611b4d565b60c08301525060e08201516001600160401b03811115611d55575f5ffd5b611d6186828501611beb565b60e083015250949350505050565b8082018082111561042c57634e487b7160e01b5f52601160045260245ffdfea2646970667358221220c43283f020eb57d9d103cdeda74a596cc531ddca9eeaba64840aa0e178ffb6a564736f6c634300081c0033",
    "linkReferences": {}
  },
  "methodIdentifiers": {
    "allowance(address,address)": "dd62ed3e",
    "approve(address,uint256)": "095ea7b3",
    "balanceOf(address)": "70a08231",
    "cancel(bytes32)": "c4d252f5",
    "confirm(bytes32)": "797af627",
    "decimals()": "313ce567",
    "decode7683FillInstruction(bytes)": "25db3796",
    "decode7683OrderData(bytes)": "5788015a",
    "fill(bytes32,bytes,bytes)": "82e2c43f",
    "name()": "06fdde03",
    "open((uint32,bytes32,bytes))": "e917a962",
    "owner()": "8da5cb5b",
    "pendingOrders(bytes32)": "7b55766f",
    "renounceOwnership()": "715018a6",
    "resolve((uint32,bytes32,bytes))": "41b477dd",
    "symbol()": "95d89b41",
    "totalSupply()": "18160ddd",
    "transfer(address,uint256)": "a9059cbb",
    "transferFrom(address,address,uint256)": "23b872dd",
    "transferOwnership(address)": "f2fde38b"
  },
  "id": 33
}